:100000000C94FC0B0C942D0C0C942D0C0C942D0CBE
:100010000C942D0C0C942D0C0C942D0C0C942D0C7C
:100020000C942D0C0C942D0C0C942D0C0C942D0C6C
:100030000C942D0C0C9440BD0C942D0C0C942D0C98
:100040000C942D0C0C94176A0C942D0C0C942D0C04
:100050000C942D0C0C942D0C0C943E7C0C94BBB980
:100060000C942D0C0C94DF1D0C942D0C0C942D0C69
:100070000C942D0C0C942D0C0C942D0C0C942D0C1C
:100080000C942D0C0C942D0C0C942D0C0C942D0C0C
:100090000C942D0C0C942D0C0C942D0C0C94817E36
:1000A0000C942D0C0C942D0C0C942D0C0C942D0CEC
:1000B0000C942D0C0C942D0C0C942D0C0C942D0CDC
:1000C0000C942D0C0C942D0C0C942D0C0C942D0CCC
:1000D0000C942D0C0C942D0C0C942D0C0C942D0CBC
:1000E0000C942D0C084AD73B3BCE016E84BCBFFD5F
:1000F000C12F3D6C74319ABD56833DDA3D00C77FF8
:1001000011BED9E4BB4C3E916BAAAABE0000008090
:100110003F05A84CCDB2D44EB93836A9020C50B91F
:10012000918688083CA6AAAA2ABE000000803F65E6
:1001300063686F3A00534420696E69742066616990
:100140006C004572726F723A00766F6C756D652E39
:10015000696E6974206661696C6564006F70656EB4
:10016000526F6F74206661696C656400534420634C
:10017000617264206F6B006F70656E206661696CE0
:1001800065642C2046696C653A20002E0046696C37
:1001900065206F70656E65643A20002053697A654A
:1001A0003A200046696C652073656C65637465640C
:1001B000006F70656E206661696C65642C2046690D
:1001C0006C653A20002E006F70656E206661696C68
:1001D00065642C2046696C653A20002E00577269D0
:1001E00074696E6720746F2066696C653A20006FD1
:1001F00070656E206661696C65642C2046696C656B
:100200003A20002E0046696C652064656C65746553
:10021000643A0044656C6574696F6E206661696C50
:1002200065642C2046696C653A20002E00534420FA
:100230007072696E74696E67206279746520002F30
:10024000004E6F74205344207072696E74696E673B
:10025000006572726F722077726974696E672074BC
:100260006F2066696C65006175746F25692E670083
:100270004D3233202573004D32340043616E6E6F72
:100280007420656E746572207375626469723A20B9
:10029000004D383420582059205A204500656368A5
:1002A0006F3A0048617264636F64656420446566F8
:1002B00061756C742053657474696E6773204C6F3C
:1002C00061646564006563686F3A00656E717565A9
:1002D000696E672022002200656E717565696E6720
:1002E0002022002200737461727400506F7765726F
:1002F0005570002045787465726E616C205265738C
:100300006574002042726F776E206F75742052659D
:1003100073657400205761746368646F6720526569
:100320007365740020536F6674776172652052653F
:10033000736574004D61726C696E2000312E302E31
:100340003000204C61737420557064617465643AA8
:100350002000536570202038203230313320323174
:100360003A32313A333700207C20417574686F721D
:100370003A2000286E6F6E652C2064656661756C8E
:100380007420636F6E6669672900436F6D70696CD6
:1003900065643A20005365702020382032303133B4
:1003A000002046726565204D656D6F72793A2000B8
:1003B0002020506C616E6E65724275666665724291
:1003C000797465733A20004D3239006F6B00446FC9
:1003D0006E6520736176696E672066696C652E00B4
:1003E0004D313130004572726F723A004C696E6562
:1003F000204E756D626572206973206E6F74204C9B
:10040000617374204C696E65204E756D6265722B48
:10041000312C204C617374204C696E653A20006366
:100420006865636B73756D206D69736D6174636866
:100430002C204C617374204C696E653A20004E6F1D
:1004400020436865636B73756D2077697468206CF1
:10045000696E65206E756D6265722C204C617374D7
:10046000204C696E653A20004E6F204C696E652005
:100470004E756D6265722077697468206368656384
:100480006B73756D2C204C617374204C696E653AEA
:1004900020006F6B005072696E7465722073746F08
:1004A000707065642064756520746F206572726F6A
:1004B00072732E2046697820746865206572726FA9
:1004C0007220616E6420757365204D39393920744E
:1004D0006F20726573746172742E202854656D707C
:1004E00065726174757265206973207265736574D5
:1004F0002E205365742069742061667465722072C1
:10050000657374617274696E67290053544F50505B
:1005100045442E2000446F6E65207072696E7469C8
:100520006E672066696C6500256920686F75727357
:10053000202569206D696E7574657300536C65655F
:10054000702E2E2E005761697420666F72207573AD
:1005500065722E2E2E00526573756D696E67207060
:1005600072696E74004E6F206D6F76652E00426565
:1005700067696E2066696C65206C69737400456EEE
:10058000642066696C65206C697374002569206D50
:10059000696E2C20256920736563006F6B20543AC7
:1005A00000202F0020423A00202F002054003A0063
:1005B000202F0020403A002042403A0048656174F4
:1005C000696E672E2E2E00543A0020453A002057BF
:1005D0003A0048656174696E6720646F6E652E002D
:1005E0004265642048656174696E672E00543A0064
:1005F00020453A0020423A0042656420646F6E65EF
:100600002E00556C74696D616B6572205265616472
:10061000792E00556C74696D616B6572204F66664A
:100620002E004649524D574152455F4E414D453A85
:100630004D61726C696E2056313B20537072696E49
:100640007465722F6772626C206D617368757020BB
:10065000666F722067656E36204649524D5741528B
:10066000455F55524C3A687474703A2F2F66697220
:100670006D776172652E756C74696D616B65722E34
:10068000636F6D2050524F544F434F4C5F5645524D
:1006900053494F4E3A312E30204D414348494E4543
:1006A0005F545950453A556C74696D616B657220A1
:1006B00045585452554445525F434F554E543A3174
:1006C0000A00583A00593A005A3A00453A00204385
:1006D0006F756E7420583A2000593A005A3A0078E3
:1006E0005F6D696E3A2000785F6D61783A2000791D
:1006F0005F6D696E3A2000795F6D61783A20007A0B
:100700005F6D696E3A20007A5F6D61783A2000551E
:100710006E6B6E6F776E20636F6D6D616E643A20E5
:1007200022002200FFFFFF00004D4300004D430068
:100730000048430000A0400000A0400000803F00AF
:1007400000000000000000000000000000000000A9
:100750000000000000000000004D4300004D430079
:10076000004843526573656E643A20006F6B005019
:1007700072696E7465722068616C7465642E206B9A
:10078000696C6C28292063616C6C656421004B499D
:100790004C4C45442E20005072696E746572207373
:1007A000746F707065642064756520746F20657265
:1007B000726F72732E2046697820746865206572A6
:1007C000726F7220616E6420757365204D393939FE
:1007D00020746F20726573746172742E20285465C2
:1007E0006D706572617475726520697320726573CE
:1007F00065742E2053657420697420616674657277
:100800002072657374617274696E67290053544F66
:10081000505045442E20006563686F3A0020636F96
:100820006C6420657874727573696F6E2070726580
:1008300076656E7465640020746F6F206C6F6E67F0
:1008400020657874727573696F6E20707265766555
:100850006E746564007C3C3E5E2B3D3F2F5B5D3BD0
:100860002C2A225C006563686F3A00656E647374BD
:100870006F7073206869743A200020583A00656EE2
:100880006473746F7073206869743A20580020593B
:100890003A00656E6473746F7073206869743A20EF
:1008A0005900205A3A00656E6473746F7073206843
:1008B00069743A205A0024F404D9201BC40C5C0E3D
:1008C0009804C4095F0265077101F405F900FB048F
:1008D000B30048048700C1036900580355000303AF
:1008E0004500BE023A008402310053022A00290268
:1008F000250004022000E4011C00C8011900AF011A
:1009000017009801140084011300710110006101A7
:10091000100051010E0043010D0036010B002B01A8
:100920000B0020010B00150109000C010900030157
:100930000800FB000800F3000800EB000700E400DB
:100940000600DE000600D8000600D2000600CC003B
:100950000500C7000500C2000500BD000400B90085
:100960000400B5000400B1000400AD000400A900BB
:100970000400A5000300A20003009F0004009B00E8
:10098000030098000300950002009300030090000C
:1009900003008D0002008B00030088000200860027
:1009A000020084000300810002007F0002007D003D
:1009B00002007B000200790002007700010076004F
:1009C00002007400020072000100710002006F005A
:1009D00002006D0001006C0002006A000100690065
:1009E000020067000100660001006500010064006C
:1009F00002006200010061000100600001005F0070
:100A000002005D0001005C0001005B0001005A0073
:100A10000100590001005800010057000100560074
:100A20000100550001005400010053000000530074
:100A300001005200010051000100500001004F0070
:100A400001004E0000004E0001004D0001004C006E
:100A500001004B0000004B0001004A00010049006A
:100A60000100480000004800010047000100460066
:100A70000000460001004500000045000100440060
:100A8000010043000000430001004200000042005A
:100A900001004100000041000100400001003F0052
:100AA00000003F0001003E0000003E0001003D004C
:100AB00000003D0001003C0000003C0000003C0044
:100AC00001003B0000003B0001003A0000003A003A
:100AD0000100390000003900010038000000380032
:100AE0000000380001003700000037000100360028
:100AF000000036000000360001003500000035001F
:100B00000000350001003400000034000000340013
:100B10000100330000003300000033000100320008
:100B200000003200000032000100310000003100FE
:100B300000003100010030000000300000003000F3
:100B400001002F0000002F0000002F0000002F00E8
:100B500001002E0000002E0000002E0001002D00DC
:100B600000002D0000002D0000002D0001002C00D1
:100B700000002C0000002C0000002C0001002B00C5
:100B800000002B0000002B0000002B0001002A00B9
:100B900000002A0000002A0000002A0001002900AD
:100BA00000002900000029000000290000002900A1
:100BB0000100280000002800000028000000280094
:100BC0000000280001002700000027000000270087
:100BD000000027000000270001002600000026007A
:100BE000000026000000260000002600010025006D
:100BF0000000250000002500000025000000250061
:100C00000000250001002400000024000000240052
:100C10000000240000002400010023000000230045
:100C20000000230000002300000023000000230038
:100C3000000023000100220000002200000022002A
:100C4000000022000000220000002200010021001C
:100C50000000210000002100000021000000210010
:100C60000000210000002100010020000000200001
:100C700000002000000020000000200000002000F4
:100C8000000020000000200001001F0000001F00E5
:100C900000001F0000001F0000001F0000001F00D8
:100CA00000001F0001001E0000001E0000001E00CA
:100CB00000001E00000024F4D43050C38E20C2A2D5
:100CC0004017828B7011127A910D816CD90AA8613C
:100CD000E108C7586607615143061E4B5D05C145D3
:100CE000A7041A411104093D9803713931034036B4
:100CF000DB0265339102D4305402802E1D02632C36
:100D0000EE01752AC501B028A001102781018F25A9
:100D100064012B244B01E0223401AC211F018D2002
:100D20000D01801FFC00841EED00971DDF00B81C24
:100D3000D200E61BC600201BBC00641AB200B21928
:100D4000A8000A19A0006A189900D117910040174D
:100D50008B00B516840031167E00B31579003A1564
:100D60007300C7146F0058146A00EE1366008813EE
:100D7000630025135E00C7125B006C12570015124A
:100D80005400C111510070114F0021114B00D610B9
:100D900049008D1047004610440002104200C00F69
:100DA0004000800F3E00420F3C00060F3B00CB0E80
:100DB0003800930E37005C0E3500270E3400F30D1B
:100DC0003200C10D3100900D3000600D2E00320D4B
:100DD0002D00050D2C00D90C2B00AE0C2900850C24
:100DE00029005C0C2700350C27000E0C2600E80BB0
:100DF0002400C40B2400A00B23007D0B23005A0BFE
:100E00002100390B2100180B2000F80A1F00D90A15
:100E10001E00BB0A1E009D0A1D00800A1D00630AF9
:100E20001C00470A1B002C0A1B00110A1A00F709B4
:100E30001A00DD091900C4091900AB09190092094B
:100E400017007B091800630917004C0916003609C2
:100E50001600200916000A091500F5081500E0081B
:100E60001400CC081400B8081400A408140090085A
:100E700013007D0812006B08130058081200460882
:100E80001200340811002308110012081100010893
:100E90001100F0071000E0071000D0071000C00795
:100EA0001000B0070F00A107100091070E00830784
:100EB0000F0074070F0065070E0057070E00490763
:100EC0000E003B070D002E070E0020070D00130734
:100ED0000D0006070D00F9060C00ED060D00E006FA
:100EE0000C00D4060C00C8060C00BC060C00B006B2
:100EF0000C00A4060B0099060C008D060B00820660
:100F00000B0077060B006C060B0061060A00570603
:100F10000B004C060A0042060A0038060A002E069C
:100F20000A0024060A001A060A001006090007062D
:100F30000A00FD050900F4050900EB050900E205BA
:100F40000900D9050900D0050900C7050900BE053B
:100F50000900B5050800AD050800A50509009C05B8
:100F60000800940508008C050800840508007C052D
:100F70000800740508006C050700650508005D059C
:100F80000700560508004E05070047050700400505
:100F9000080038050700310507002A05070023056A
:100FA00007001C050600160507000F0507000805C9
:100FB000060002050700FB040600F5040700EE0426
:100FC0000600E8040600E2040700DB040600D5047E
:100FD0000600CF040600C9040600C3040600BD04D1
:100FE0000600B7040600B1040500AC040600A60420
:100FF0000600A00405009B0406009504050090046B
:1010000006008A04050085040500800406007A04B1
:10101000050075040500700405006B0405006604F6
:101020000500610405005C04050057040500520436
:1010300005004D04050048040500430405003E0476
:1010400004003A04050035040500300404002C04B3
:10105000050027040400230405001E0404001A04EC
:10106000040016040500110404000D040400090422
:1010700005000404040000040400FC030400F80359
:101080000400F4030400F0030400EC030400E8038C
:101090000400E4030400E0030400DC030400D803BC
:1010A0000400D4030400D0030400CC030400C803EC
:1010B0000300C503030020626961733A20002064C5
:1010C0003A2000206D696E3A2000206D61783A2048
:1010D00000204B753A20002054753A200020436CC4
:1010E00061736963205049442000204B703A20000E
:1010F000204B693A2000204B643A2000504944209C
:101100004175746F74756E65206661696C656421E4
:101110002054656D706572617475726520746F6FAF
:101120002068696768006F6B20423A006F6B20543B
:101130003A0020403A00504944204175746F74755C
:101140006E65206661696C6564212074696D656FE8
:10115000757400504944204175746F74756E652034
:1011600066696E69736865642120507574207468BF
:1011700065204B702C204B6920616E64204B6420ED
:10118000636F6E7374616E747320696E746F204345
:101190006F6E66696775726174696F6E2E6800455F
:1011A00072726F723A00202D20496E76616C69640C
:1011B000206578747275646572206E756D626572F3
:1011C0002021003A20457874727564657220737727
:1011D000697463686564206F66662E204D415854BB
:1011E000454D5020747269676765726564202100FF
:1011F0004572723A204D415854454D50003A2045B1
:101200007874727564657220737769746368656455
:10121000206F66662E204D494E54454D5020747205
:10122000696767657265642021004572723A204DD6
:10123000494E54454D5000496E666F207363726588
:10124000656E0054756E6500507265706172650060
:10125000436F6E74726F6C005061757365205072CD
:10126000696E7400526573756D65205072696E7495
:101270000053746F70205072696E74005072696E02
:10128000742066726F6D205344004E6F204361726C
:1012900064004D61696E00052E2E004D323320250D
:1012A00073004D3234004D383420582059205A20D4
:1012B00045004D61696E0054656D706572617475AD
:1012C0007265004D6F74696F6E00526573746F7252
:1012D00065204661696C7361666500436F6E747268
:1012E0006F6C00416363656C00416363656C00561D
:1012F00078792D6A65726B005678792D6A65726B04
:1013000000567A2D6A65726B00567A2D6A65726B8B
:101310000056652D6A65726B0056652D6A65726BA5
:1013200000566D6178207800566D617820780056FF
:101330006D6178207900566D6178207900566D6175
:1013400078207A00566D6178207A00566D61782099
:101350006500566D6178206500566D696E00566DAA
:10136000696E005654726176206D696E0056547233
:101370006176206D696E00416D6178207800416D65
:101380006178207800416D6178207900416D617845
:10139000207900416D6178207A00416D6178207A72
:1013A00000416D6178206500416D617820650041E4
:1013B0002D7265747261637400412D72657472617F
:1013C0006374005873746570732F6D6D0058737477
:1013D0006570732F6D6D005973746570732F6D6D2B
:1013E000005973746570732F6D6D005A7374657056
:1013F000732F6D6D005A73746570732F6D6D00459A
:1014000073746570732F6D6D004573746570732F01
:101410006D6D00436F6E74726F6C004E6F7A7A6CF4
:1014200065004E6F7A7A6C65004E6F7A7A6C653221
:10143000004E6F7A7A6C65320046616E207370657B
:1014400065640046616E2073706565640041757463
:101450006F74656D70004F6E20004F6666004F6EB2
:1014600020004F6666002002204D696E0020022099
:101470004D696E002002204D6178002002204D61F0
:1014800078002002204661637400200220466163D8
:1014900074005049442D50005049442D500050498B
:1014A000442D49005049442D49005049442D4400E1
:1014B0005049442D44005049442D43005049442D87
:1014C00043005072656865617420504C4120436F41
:1014D0006E66005072656865617420414253204316
:1014E0006F6E660054656D7065726174757265002B
:1014F00046616E2073706565640046616E2073708E
:10150000656564004E6F7A7A6C65004E6F7A7A6C0E
:10151000650054656D706572617475726500466131
:101520006E2073706565640046616E20737065653A
:1015300064004E6F7A7A6C65004E6F7A7A6C650043
:101540004D61696E0044697361626C652053746516
:101550007070657273004D3834004175746F2048A7
:101560006F6D6500473238005072656865617420A0
:10157000504C4100507265686561742041425300CF
:10158000436F6F6C646F776E005377697463682084
:10159000506F776572204F6666004D383100537783
:1015A0006974636820506F776572204F6E004D3804
:1015B00030004D6F76652041786973005072657018
:1015C000617265004D6F76652031306D6D004D6F35
:1015D000766520316D6D004D6F766520302E316D52
:1015E0006D004D6F76652041786973004D6F7665AB
:1015F0002058004D6F76652059004D6F7665205A52
:10160000004578747275646572004578747275640B
:101610006572005A00590058004D61696E005370A0
:10162000656564005370656564004E6F7A7A6C6519
:10163000004E6F7A7A6C65004E6F7A7A6C65320074
:101640004E6F7A7A6C65320046616E207370656504
:10165000640046616E20737065656400466C6F7748
:1016600000466C6F77000120002059005344002D84
:101670002D2D002D2D3A2D2D004361726420696EB1
:1016800073657274656400436172642072656D6F86
:101690007665640000002100240027002A002D0048
:1016A0003000330001010000040107010A010000BD
:1016B0002200250028002B002E00310034000201FA
:1016C0000000050108010B01000020002300260096
:1016D00029002C002F003200000100000301060148
:1016E00009010505050507050808080802020202A8
:1016F0000A0A0808040404040101010101010101AE
:101700000303030303030303040707070C0C0C0C78
:101710000C0C0C0C02020202060606060606060661
:101720000B0B0B0B0B0B0B0B0102102020080810EE
:101730002040102040800201020108040201010241
:10174000040810204080804020100804020180041A
:101750000201804020100804020108040201010275
:10176000040810204080010204081020408000007E
:10177000090A02080B0C0D07060304010000000013
:101780000000000000000000000000000000000059
:101790000000000000000000000011100F00000019
:1017A0000000000000000000000000000000000039
:1017B0000000000002494E46494E4954594E414EE0
:1017C000000020410000C84200401C4620BCBE4C26
:1017D000CA1B0E5AAEC59D74CDCCCC3D0AD7233C56
:1017E00017B7D13877CC2B329595E6241FB14F0A25
:1017F000DC1D6F421FB5754211241FBECFEFD1E231
:10180000DEBFCDBF00E00CBF14E0A0E0B2E0E4E535
:10181000FEE801E00BBF02C007900D92A038B107AF
:10182000D9F722E1A0E8B4E001C01D92A236B207C8
:10183000E1F717E1C6EFD7E100E006C02297010902
:10184000FE010BBF0E9408C1C03FD10780E008071E
:10185000A9F70E9499BC0C9419C70C940000FC01D4
:1018600012828FEF8183108213820895CF93DF93CA
:10187000EC016A8380E894E00E94A41D41E06A8143
:1018800080E894E00E94BB1D91E0811101C090E0CE
:101890009B8380E894E00E94071D88838B8190E001
:1018A000DF91CF910895FC012381222339F061114A
:1018B00003C02FEF21830895FC0111820895CF9377
:1018C000DF93EC018B818823A1F0898180956823C7
:1018D00068836A8180E894E00E94BD1D688180E889
:1018E00094E00E94611D80E894E00E94DA1D90E07F
:1018F00002C080E090E021E030E0892B11F020E090
:1019000030E0822F932FDF91CF91089508950895AD
:10191000DC01ED91FC910284F385E02D41E0199505
:1019200081E090E00895FC011382128221EF32E001
:10193000318320830895DC01ED91FC910084F185D1
:10194000E02D6FEF19950895DC01ED91FC91028473
:10195000F385E02D40E019950895EF92FF920F93E3
:101960001F93CF93DF937C01D42FC52F677070E056
:10197000660F771F660F771F660F771F6064E4DFBF
:101980008EE190E00E946ABA0D2F1C2FC0E0D0E0DB
:10199000D8016D918D01D701ED91FC910190F081FD
:1019A000E02DC701199588E290E00E946ABA21965D
:1019B000C830D10569F7DF91CF911F910F91FF904A
:1019C000EF900895FC016581262F246025836C60CB
:1019D000BBCFCF93DF93CDB7DEB728970FB6F89480
:1019E000DEBF0FBECDBF1D8220E42E8334E13F83D6
:1019F00034E5388719822A8320E12B8320E52C8364
:101A0000FC012781421710F0422F4150FC01308524
:101A1000303151F4243041F4FE01E40FF11D2181F5
:101A2000620F606891DF07C0FE01E40FF11D2581A0
:101A3000620F606889DF28960FB6F894DEBF0FBE8C
:101A4000CDBFDF91CF91089561E07EDF80ED97E01B
:101A50000C946ABACF93DF93EC01423018F08C817A
:101A600088608C834F836887222329F0413019F4E2
:101A70008C8184608C8364E670E080E090E00E945A
:101A800011BA6C8164FD31C0E881F9810284F3856B
:101A9000E02D42E063E0CE01199584E991E10E94D6
:101AA0006ABAE881F9810284F385E02D42E063E0BF
:101AB000CE01199584E991E10E946ABAE881F98121
:101AC0000284F385E02D42E063E0CE01199586E9BA
:101AD00090E00E946ABAE881F9810284F385E02DE2
:101AE00042E062E0CE01199513C06062CE012CDFA6
:101AF00084E991E10E946ABA6C816062CE0124DFC0
:101B000086E990E00E946ABA6C816062CE011CDFB7
:101B10006C816062CE0118DF84E08D83CE0152DFDC
:101B2000CE0192DF82E08E8366E0CE010DDFCE0132
:101B300002DFDF91CF91089521E030E001C0220F54
:101B40006A95EAF7DC011B962C931B9719964C9328
:101B50001997ED91FC910084F185E02D60E01995D5
:101B60000895FC018385882389F09185911103C034
:101B7000611105C006C0913021F4611102C0848753
:101B800001C014866485CF010D9699CE08950F93F8
:101B90001F93CF93DF93EC018C01035F1F4F6A8586
:101BA000C80164DE019751F461E0C8017CDE1C824B
:101BB00060E0C80184DE21E030E002C020E030E0D7
:101BC000822F932FDF91CF911F910F910895FF9254
:101BD0000F931F93CF93DF93EC01162F042FF22E58
:101BE000D6DF2F2D402F612FCE0134DFDF91CF9133
:101BF0001F910F91FF9008958F92AF92CF92EF9225
:101C00000F93CF93DF93CDB7DEB7FC0162871386C6
:101C10001486118681E090E0982F01C0990F4A95B3
:101C2000EAF7918B982F01C0990F2A95EAF7928BCA
:101C3000982F01C0990F0A95EAF7938B982F01C04E
:101C4000990FEA94EAF7948B982F01C0990FCA94E0
:101C5000EAF7958B982F01C0990FAA94EAF7968B13
:101C600001C0880F8A94EAF7878BDF91CF910F919B
:101C7000EF90CF90AF908F9008956F927F928F9258
:101C8000AF92CF92DF92EF92FF920F931F93CF9379
:101C9000DF93CDB7DEB73C01162FF42ED22E43DEF4
:101CA00081E093E0F30191838083C3010D96D7DD3A
:101CB0002D2D4F2D612FC3019FDF49896889C301F5
:101CC0003BDFDF91CF911F910F91FF90EF90DF905D
:101CD000CF90AF908F907F906F900895FF920F9369
:101CE0001F93CF93DF93EC01F62E8C01035F1F4F00
:101CF00069896F29C801E3DD698960956F21C80191
:101D0000DEDDDF91CF911F910F91FF90089520E0CC
:101D100030E050E060FF05C0FC01E20FF31F748962
:101D2000572B66952F5F3F4F2430310599F741308F
:101D300011F4FC014389FC016485562B652F642B4B
:101D4000CDCF0F931F93CF93DF93EC01062F142F6A
:101D5000423021F46F7040E0DADF12C0862F90E04D
:101D6000BC0175956795759567957595679575959A
:101D70006795CE01CCDF602F6F70412FCE01C7DF9A
:101D8000DF91CF911F910F910895CF93DF93FC01C5
:101D900013AA16AA12AA11AA2AE234E030AB27A786
:101DA000EC5AFF4F10821382FC01E05BFF4F13825D
:101DB000128231832083BC0161597F4FFB01DC011A
:101DC000AA58BF4FAC014B555E4FED0123971882C7
:101DD0001C9213821282318320837F965F96E417D0
:101DE000F50799F7FC01E955FE4F29E1218314829B
:101DF000FC01E455FE4F178AFC01E253FE4F1082AE
:101E00001382FC01E653FE4F138212822AE234E071
:101E100031832083FC01E751FE4F10821182128230
:101E20001382FC01EF50FE4F108211821282138246
:101E3000FC011282138210821182EC01C351DE4F29
:101E4000188219821A821B82EB55FE4F1182108272
:101E500026E331E0FB01A901119241505040E1F726
:101E6000FC01EB50FE4F21E02083FC0116A615A6D5
:101E70000E9403BADC01CB0188579C4EAF4FBF4F85
:101E800088839983AA83BB83DF91CF910895CF93F1
:101E9000DF93E62FF72FA82FB92F20E04EE2EF01B6
:101EA0003081303229F0283009F44D9338813D9348
:101EB0002F5F31962B3099F71C92DF91CF910895C7
:101EC0002F923F924F925F926F927F928F929F924A
:101ED000AF92BF92CF92DF92EF92FF920F931F9338
:101EE000CF93DF93CDB7DEB7CB58D1090FB6F894B7
:101EF000DEBF0FBECDBF8C014B01C757DF4F18822D
:101F0000C958D0406A0184E0C80ED11C28019AE06B
:101F1000491A9EEF590AD801A950BE4FC657DF4F44
:101F2000B983A883CA58D0407E01BFE5EB0EF11CEF
:101F30006894662466F8712C6C0E7D1EE4E06E0ECB
:101F4000711C0F2EFFE22F2EF1E03F2EF02DF1013C
:101F5000F491CA57DF4FF883C658D04089E790E024
:101F60008C0F9D1F0196C957DF4F99838883C758EF
:101F7000D0405EC19BA5292F2871203109F073C183
:101F8000D2018C91813009F46EC1823009F05DC1BB
:101F90006AC1F70101900020E9F731978FE290E0E4
:101FA00091838083B401C7010E9416C4BE016758A3
:101FB0007F4FC7010E9416C4F70101900020E9F786
:101FC00031978FE290E09183808325961FAE25970D
:101FD00028961FAE289724961FAE1EAE24978AE23D
:101FE00094E022969FAF8EAF229721E0AE01475832
:101FF0005F4FB601C3010E944861811157C0F201D1
:102000008081811153C0CA57DF4F3881C658D040F4
:10201000311108C04EE053E033E4E0ECF0E086EC30
:1020200090E011C0A101A0ECB0E086EC90E02C9112
:1020300025FFFDCFFC0130834F5F5F4FFA013491E4
:102040003111F5CFE7CF208125FFFDCFDC013C9397
:10205000DA013D91AD013111F6CFE0ECF0E0808185
:1020600085FFFDCF8AE08093C600EA963FADEA97F0
:102070003323A1F0C957DF4F48815981C758D04059
:10208000E0ECF0E086EC90E0208125FFFDCFDC0164
:102090003C93DA013D91AD013111F6CFE0ECF0E077
:1020A000808185FFFDCF8AE08093C6008BE1FE0131
:1020B000EC5BFF4FDE01159601900D928A95E1F7DA
:1020C00024968EAD9FAD24979C838B830F2EFAE2CE
:1020D000AF2EF4E0BF2EF02DBA82A982AE014F5F81
:1020E0005F4FB701C801ECDEBA82A98288858823D8
:1020F00021F0CE0105960E94035F8AE294E02296C9
:102100009FAF8EAF229728968FAD2897882309F42A
:102110008FC0C3010E94035F8BC0853E09F488C055
:102120008E3209F485C08F3509F482C0F8018189A7
:10213000882331F08E3209F47BC08F3509F478C0E2
:1021400093FD76C081E0203109F080E0D8019C96B3
:102150008C93811108C088A5873409F069C089A5CE
:102160008E3709F465C0BE01605E7F4FC8010496DA
:102170008EDEF2018081811133C0D4013C91332382
:1021800089F0A4014F5F5F4FE0ECF0E086EC90E057
:10219000208125FFFDCFDC013C93DA013D91AD01AB
:1021A0003111F6CFF8013481332389F0A8014B5F58
:1021B0005F4FE0ECF0E086EC90E0208125FFFDCF62
:1021C000DC013C93DA013D91AD013111F6CFE0EC39
:1021D000F0E0808185FFFDCF8AE08093C60028C0B3
:1021E000813061F4C657DF4FE881F981CA58D04089
:1021F000808191810196918380831AC08230C1F4DD
:10220000C757DF4FF881C958D0402F2F30E0C6574D
:10221000DF4FA881B981CA58D0408D919C91281771
:10222000390721F1FF5FC757DF4FF883C958D04006
:10223000A8014F5E5F4FBE01605E7F4FC6010E94E6
:10224000425D18160CF496CE11C0BE01605E7F4F41
:10225000CE0187589F4F1BDEF7011082D4018C916D
:102260008111A0CE96CE88A1811157CFC557DF4FDF
:102270000FB6F894DEBF0FBECDBFDF91CF911F9197
:102280000F91FF90EF90DF90CF90BF90AF909F9015
:102290008F907F906F905F904F903F902F90089518
:1022A000EF92FF920F931F93CF93DF93CDB7DEB7DB
:1022B0006F970FB6F894DEBF0FBECDBF8C01FC0147
:1022C000EA50FE4F10827C0183E3E80EF11C40E0EF
:1022D00050E0BA01C7010E940F5E8BE1F701DE01F9
:1022E000159601900D928A95E1F7F80181A992A9BE
:1022F0009C838B830F2EFAE2EF2EF4E0FF2EF02D5D
:10230000FA82E982AE014F5F5F4F61E474E0C80179
:10231000D7DDFA82E9828885882321F0CE010596EF
:102320000E94035F6F960FB6F894DEBF0FBECDBF5D
:10233000DF91CF911F910F91FF90EF900895CF9271
:10234000DF92EF92FF920F931F93CF93DF936C0175
:10235000EC011B828EA9882321F0C601C3960E943E
:10236000035F860109551E4F45E360E0C8010E94E6
:102370000C5981112DC0EFE2F1E03491332369F063
:10238000A0ECB0E086EC90E02C9125FFFDCFEC01B5
:102390003883319634913111F7CFE5E3F1E0349190
:1023A000332369F0A0ECB0E086EC90E02C9125FF9F
:1023B000FDCFEC013883319634913111F7CFE0EC49
:1023C000F0E0808185FFFDCF8AE08093C600A3C046
:1023D0007601D4E5ED1ADEEFFD0A41E0B801C70150
:1023E0000E940E68811134C040E0B801C7010E940C
:1023F0000E6881112DC0E2E4F1E03491332369F0DD
:10240000A0ECB0E086EC90E02C9125FFFDCFEC0134
:102410003883319634913111F7CFE9E4F1E034910A
:10242000332369F0A0ECB0E086EC90E02C9125FF1E
:10243000FDCFEC013883319634913111F7CFE0ECC8
:10244000F0E0808185FFFDCF8AE08093C60063C005
:10245000B701C601C3960E94A85B81112DC0E2E4BA
:10246000F1E03491332369F0A0ECB0E086EC90E029
:102470002C9125FFFDCFEC01388331963491311139
:10248000F7CFECE5F1E03491332369F0A0ECB0E054
:1024900086EC90E02C9125FFFDCFEC01388331963E
:1024A00034913111F7CFE0ECF0E0808185FFFDCF72
:1024B0008AE08093C6002FC081E0F6018383EFE2BB
:1024C000F1E03491332369F0A0ECB0E086EC90E0C9
:1024D0002C9125FFFDCFEC013883319634913111D9
:1024E000F7CFECE6F1E03491332369F0A0ECB0E0F3
:1024F00086EC90E02C9125FFFDCFEC0138833196DE
:1025000034913111F7CFE0ECF0E0808185FFFDCF11
:102510008AE08093C600C601805B9F4F2BE1F601E5
:10252000F396DC01149601900D922A95E1F7F601DD
:1025300021A932A9EC013B832A83E25BFF4FE6012C
:10254000AF96D183C083DF91CF911F910F91FF9000
:10255000EF90DF90CF900895FC01128213820895CE
:10256000FC012381222311F021E022830895FC0144
:1025700022812111128208952F923F924F925F92F1
:102580006F927F928F929F92AF92BF92CF92DF9283
:10259000EF92FF920F931F93CF93DF93CDB7DEB7E8
:1025A000E0970FB6F894DEBF0FBECDBF3C012B0104
:1025B000342EDC0113968C91882309F47AC2F3013E
:1025C000E253FE4FF8ABEFA7CF010E94035FD301A8
:1025D00012961C921D8218861C821B828AE294E04D
:1025E0009A838983F301E25BFF4FC3018F96918346
:1025F0008083F20180818F3209F0C3C06FE270E006
:10260000C2010E9421C401966C0109F4C4C000EC0F
:1026100010E00F2EF6ECEF2EF12CF02D0F2EFAE03D
:102620002F2EF02DC301825B9F4F9EA78DA76FE2D7
:1026300070E0C6010E9421C45C01009709F4ACC09F
:10264000C816D90608F0A8C04C018C189D08A40132
:10265000B601CE0180960E9441C4E0E2F0E0EC0FAA
:10266000FD1FE80DF91D108298A1992359F0FE0174
:10267000B196D8018C9185FFFCCFD7019C939191A5
:102680009111F7CFF801808185FFFCCFD7012C9203
:10269000EDA5FEA5608171816115710519F06C5F72
:1026A0007F4F02C060E070E021E0AE01405E5F4F0E
:1026B000CE0105960E944861811153C0E7E7F1E021
:1026C0003491332381F0AF01A0ECB0E086EC90E0D0
:1026D0002C9125FFFDCFFC0130834F5F5F4FFA0146
:1026E00034913111F5CF38A1332389F0AE014F5D1C
:1026F0005F4FE0ECF0E086EC90E0208125FFFDCF1D
:10270000DC013C93DA013D91AD013111F6CFEBE8EC
:10271000F1E03491332381F0AF01A0ECB0E086EC1E
:1027200090E02C9125FFFDCFFC0130834F5F5F4F80
:10273000FA0134913111F5CFE0ECF0E0808185FFB2
:10274000FDCF8AE08093C6008AE294E09A83898371
:102750008885882309F4ADC1CE0105960E94035FE8
:10276000A8C1E1E0F0E0EC0FFD1FADA5BEA5ED9323
:10277000FC936501FFEFCF1ADF0A09F058CF620121
:102780000BC0F301E25BFF4FC301805B9F4F91835E
:102790008083620101C06201332009F4EAC0F301C1
:1027A000E25BFF4F80819181009721F0BC016C5F5B
:1027B0007F4F02C060E070E021E0A6018FA598A9DC
:1027C0000E944861882309F48CC0F301E751FE4F51
:1027D000D301A253BE4F51968D919D910D90BC9106
:1027E000A02D80839183A283B383EDE8F1E034913F
:1027F000332381F0AF01A0ECB0E086EC90E02C91A7
:1028000025FFFDCFFC0130834F5F5F4FFA0134910C
:102810003111F5CFD6013C91332389F0A6014F5FEA
:102820005F4FE0ECF0E086EC90E0208125FFFDCFEB
:10283000DC013C93DA013D91AD013111F6CFEBE9BA
:10284000F1E03491332381F0AF01A0ECB0E086ECED
:1028500090E02C9125FFFDCFFC0130834F5F5F4F4F
:10286000FA0134913111F5CFF301E751FE4F408168
:102870005181628173812AE030E082ED94E00E9410
:10288000001FE0ECF0E0808185FFFDCF8AE08093BF
:10289000C600F301EF50FE4F1082118212821382A4
:1028A000E3EAF1E03491332381F0AF01A0ECB0E032
:1028B00086EC90E02C9125FFFDCFFC0130834F5F2B
:1028C0005F4FFA0134913111F5CFE0ECF0E08081F7
:1028D00085FFFDCF8AE08093C600C6010E94289440
:1028E000DDC0E1EBF1E03491332381F0AF01A0ECE6
:1028F000B0E086EC90E02C9125FFFDCFFC01308309
:102900004F5F5F4FFA0134913111F5CFD6013C9101
:10291000332389F0BFEFCB1ADB0AE0ECF0E086EC62
:1029200090E0208125FFFDCFDC013C93D6013D9155
:102930006D013111F6CFE5ECF1E03491332381F0F4
:10294000AF01A0ECB0E086EC90E02C9125FFFDCF2C
:10295000FC0130834F5F5F4FFA0134913111F5CFA5
:10296000E0ECF0E0808185FFFDCF8AE08093C60037
:1029700095C0F301E25BFF4F80819181009721F0C8
:10298000BC016C5F7F4F02C060E070E026E5A601ED
:102990008FA598A90E944861811148C0E7ECF1E039
:1029A0003491332381F0AF01A0ECB0E086EC90E0ED
:1029B0002C9125FFFDCFFC0130834F5F5F4FFA0163
:1029C00034913111F5CFD6013C91332389F0BFEF1B
:1029D000CB1ADB0AE0ECF0E086EC90E0208125FFEA
:1029E000FDCFDC013C93D6013D916D013111F6CF55
:1029F000EBEDF1E03491332381F0AF01A0ECB0E0D6
:102A000086EC90E02C9125FFFDCFFC0130834F5FD9
:102A10005F4FFA0134913111F5CFE0ECF0E08081A5
:102A200085FFFDCF8AE08093C60038C081E0D301E6
:102A30008C93EDEDF1E03491332381F0AF01A0EC04
:102A4000B0E086EC90E02C9125FFFDCFFC013083B7
:102A50004F5F5F4FFA0134913111F5CFD2013C91B4
:102A6000332389F0BFEF4B1A5B0AE0ECF0E086EC11
:102A700090E0208125FFFDCFDC013C93D2013D9108
:102A80002D013111F6CFE0ECF0E0808185FFFDCF24
:102A90008AE08093C600C6010E9428948AE294E0EE
:102AA0009A8389838885882321F0CE0105960E9428
:102AB000035FE0960FB6F894DEBF0FBECDBFDF9187
:102AC000CF911F910F91FF90EF90DF90CF90BF902B
:102AD000AF909F908F907F906F905F904F903F90BE
:102AE0002F90089521E0FC01218340E045CD2F92F5
:102AF0003F924F925F926F927F928F929F92AF928E
:102B0000BF92CF92DF92EF92FF920F931F93CF93DA
:102B1000DF93CDB7DEB7AC970FB6F894DEBF0FBE2C
:102B2000CDBF3C012B01DC0113968C91882309F465
:102B300076C1C30182539E4F0E94035FF30112824C
:102B40001D8218861C821B828AE294E09A83898304
:102B5000E25BFF4FC3018F9691838083D2018C91FA
:102B60008F3209F0BCC06FE270E0C2010E9421C444
:102B700001966C0109F4BFC000EC10E00F2EF6ECDA
:102B8000EF2EF12CF02D1301BEE42B0E311C6FE261
:102B900070E0C6010E9421C45C01009709F4A8C03E
:102BA000C816D90608F0A6C04C018C189D08A401CF
:102BB000B601CE0180960E9441C4E0E2F0E0EC0F45
:102BC000FD1FE80DF91D108298A1992359F0FE010F
:102BD000B196D8018C9185FFFCCFD7019C93919140
:102BE0009111F7CFF801808185FFFCCFEAE0D70192
:102BF000EC93D1016D917C916115710519F06C5FB9
:102C00007F4F02C060E070E021E0AE01405E5F4FA8
:102C1000CE0105960E944861811153C0EFEEF1E0AC
:102C20003491332381F0AF01A0ECB0E086EC90E06A
:102C30002C9125FFFDCFFC0130834F5F5F4FFA01E0
:102C400034913111F5CF38A1332389F0AE014F5DB6
:102C50005F4FE0ECF0E086EC90E0208125FFFDCFB7
:102C6000DC013C93DA013D91AD013111F6CFE3E097
:102C7000F2E03491332381F0AF01A0ECB0E086ECB8
:102C800090E02C9125FFFDCFFC0130834F5F5F4F1B
:102C9000FA0134913111F5CFE0ECF0E0808185FF4D
:102CA000FDCF8AE08093C6008AE294E09A8389830C
:102CB0008885882309F4B3C0CE0105960E94035F7E
:102CC000AEC0E1E0F0E0EC0FFD1FD101ED93FC930D
:102CD0006501FFEFCF1ADF0A09F059CF0CC0F301ED
:102CE000E25BFF4FC301805B9F4F9183808303C0F2
:102CF000260101C02601F301E25BFF4F8081918133
:102D0000009711F0049602C080E090E0B2010E94AA
:102D10000562882391F1E5E0F2E03491332381F0FC
:102D2000AF01A0ECB0E086EC90E02C9125FFFDCF48
:102D3000FC0130834F5F5F4FFA0134913111F5CFC1
:102D4000D2013C91332389F0BFEF4B1A5B0AE0ECD0
:102D5000F0E086EC90E0208125FFFDCFDC013C9384
:102D6000D2013D912D013111F6CFF301EF50FE4F0D
:102D7000108211821282138247C0E3E1F2E03491A3
:102D8000332381F0AF01A0ECB0E086EC90E02C9111
:102D900025FFFDCFFC0130834F5F5F4FFA01349177
:102DA0003111F5CFD2013C91332389F0BFEF4B1A9B
:102DB0005B0AE0ECF0E086EC90E0208125FFFDCF9F
:102DC000DC013C93D2013D912D013111F6CFEBE2B4
:102DD000F2E03491332381F0AF01A0ECB0E086EC57
:102DE00090E02C9125FFFDCFFC0130834F5F5F4FBA
:102DF000FA0134913111F5CFE0ECF0E0808185FFEC
:102E0000FDCF8AE08093C6008AE294E09A838983AA
:102E10008885882321F0CE0105960E94035FAC9639
:102E20000FB6F894DEBF0FBECDBFDF91CF911F91DB
:102E30000F91FF90EF90DF90CF90BF90AF909F9059
:102E40008F907F906F905F904F903F902F9008955C
:102E50000F931F93CF93DF938C01EC018B81882319
:102E600009F445C0EDE2F2E03491332369F0A0ECBF
:102E7000B0E086EC90E02C9125FFFDCFEC0138838B
:102E8000319634913111F7CFF801EF50FE4F408168
:102E90005181628173812AE030E082ED94E0B0D705
:102EA000EFE3F2E03491332369F0A0ECB0E086EC7C
:102EB00090E02C9125FFFDCFEC01388331963491C1
:102EC0003111F7CFE801C751DE4F488159816A813E
:102ED0007B812AE030E082ED94E092D7E0ECF0E0F4
:102EE000808185FFFDCF8AE08093C60019C0E1E4B0
:102EF000F2E09491992361F0A0ECB0E0C6ECD0E050
:102F00008C9185FFFDCF9883319694919111F8CFE4
:102F1000E0ECF0E0808185FFFDCF8AE08093C60081
:102F2000DF91CF911F910F910895CF92DF92EF9291
:102F3000FF920F931F93CF93DF938C01EB01EC2F44
:102F4000FD2FDF010D900020E9F711976D01CE1ADA
:102F5000DF0AF801E253FE4F10826EE470E0CE010A
:102F60000E9421C47C01009729F4F6013197EC0FEF
:102F7000FD1F0DC060E270E00E9421C4EC012196AB
:102F80006AE270E0C7010E9421C4FC0131978DE024
:102F900081838AE082831382BE01C80186539E4FDB
:102FA0000E944E64F801E253FE4F8081882351F164
:102FB000E2E4F1E09491992361F0A0ECB0E0C6EC7A
:102FC000D0E08C9185FFFDCF98833196949191113B
:102FD000F8CFE1E5F2E09491992361F0A0ECB0E044
:102FE000C6ECD0E08C9185FFFDCF9883319694910B
:102FF0009111F8CFE0ECF0E0808185FFFDCF8AE011
:103000008093C600DF91CF911F910F91FF90EF90B9
:10301000DF90CF9008952F923F924F925F926F92E0
:103020007F928F929F92AF92BF92CF92DF92EF9258
:10303000FF920F931F93CF93DF93CDB7DEB7CD559C
:10304000D1090FB6F894DEBF0FBECDBF4C016111A0
:1030500016C0FC01EB50FE4F8081882309F4C5C0E7
:10306000F401E351FE4FC080D180E280F3800E94E2
:1030700003BAC616D706E806F90608F4B6C0F40186
:10308000EB50FE4F1082F4018381811107C0C4010F
:1030900056D9F4018381882309F4A7C0F40186A5D9
:1030A0008F9385A58F9387E692E09F938F93CE01B0
:1030B000CF969F938F930E9450C40F900F900F90C4
:1030C0000F900F900F90D12C8E01015C1F4F0DC0FF
:1030D0007801ED0CF11CD7FCFA94F701808190E0A7
:1030E0000E94A7C3F7018083D394F80101900020C8
:1030F000E9F73197E01BF10BDE1654F36401F3E3BB
:10310000CF0ED11C40E050E0BA01C6010E940F5E14
:103110006E961FAE6E978E010F5F1F4F212C5E01C2
:103120008FE3A80EB11C0F2EF0E74F2EF2E05F2EBA
:10313000F02D3E01E1E26E0E711C3EC07801E30C01
:10314000F11C37FCFA94F7018081922D0E94A7C3ED
:10315000F7018083339401C0322CF80101900020E4
:10316000E9F73197E01BF10B3E1644F38A858E3761
:1031700019F145E050E0B501C8010E9433C4282F81
:10318000392F232BC9F4BF92AF925F924F927F9257
:103190006F920E9450C4C3010E94602287E792E0B0
:1031A0000E94ED220F900F900F900F900F900F90B4
:1031B000F1E06E96FFAF6E9740E050E0B801C601B7
:1031C0000E94425D181644F26E968FAD6E97811183
:1031D00006C08FEF9FEFF40196A785A706C0F40104
:1031E00085A596A5019696A785A7C35ADF4F0FB66A
:1031F000F894DEBF0FBECDBFDF91CF911F910F912D
:10320000FF90EF90DF90CF90BF90AF909F908F9006
:103210007F906F905F904F903F902F9008950F9305
:103220001F93CF93DF93EC018C0102531E4FC80113
:103230000E94BA5EC8010E94035F18821982DF9162
:10324000CF911F910F910895EF92FF920F931F93CB
:10325000CF93DF93CDB7DEB76F970FB6F894DEBF8D
:103260000FBECDBF8C017C018EE4E80EF11CC801BD
:10327000805B9F4FF70191838083F801EA50FE4FF6
:1032800022E02083F801E950FE4F6083118240E084
:1032900050E0BA0104960E940F5EF701808191818F
:1032A0002BE1FC013496DE01159601900D922A95D2
:1032B000E1F7FC01828193819C838B830F2EFAE2DC
:1032C000EF2EF4E0FF2EF02DFA82E982AE014F5F7F
:1032D0005F4F61E474E0C8010E94600FFA82E982E6
:1032E0008885882321F0CE0105960E94035F6F96A2
:1032F0000FB6F894DEBF0FBECDBFDF91CF911F9107
:103300000F91FF90EF900895EF92FF920F931F930C
:10331000CF93DF93CDB7DEB76F970FB6F894DEBFCC
:103320000FBECDBF8C017C018EE4E80EF11CC801FC
:10333000805B9F4FF70191838083F801EA50FE4F35
:1033400021E02083F801E950FE4F1182108240E015
:1033500050E0BA0104960E940F5EF70180819181CE
:103360002BE1FC013496DE01159601900D922A9511
:10337000E1F7FC01828193819C838B830F2EFAE21B
:10338000EF2EF4E0FF2EF02DFA82E982AE014F5FBE
:103390005F4F61E474E0C8010E94600FFA82E98225
:1033A0008885882321F0CE0105960E94035FF801ED
:1033B000E950FE4F808191816F960FB6F894DEBF81
:1033C0000FBECDBFDF91CF911F910F91FF90EF9076
:1033D0000895CF92DF92EF92FF920F931F93CF93B6
:1033E000DF93CDB7DEB76F970FB6F894DEBF0FBE91
:1033F000CDBF7C018B011D8218861C821B828AE254
:1034000094E09A838983F701EC5AFF4F83818111FD
:1034100005C067018FE2C80ED11C04C06701A0E59A
:10342000CA0ED11CB6016C5F7F4F21E0A801CE010E
:1034300005960E944861811147C0EFE2F1E03491A6
:10344000332381F0AF01A0ECB0E086EC90E02C914A
:1034500025FFFDCFFC0130834F5F5F4FFA013491B0
:103460003111F5CFEBE7F2E03491332381F0AF0176
:10347000A0ECB0E086EC90E02C9125FFFDCFFC01A4
:1034800030834F5F5F4FFA0134913111F5CFD8018E
:103490003C91332381F00F5F1F4FE0ECF0E086ECAE
:1034A00090E0208125FFFDCFDC013C93D8013D91C8
:1034B0008D013111F6CFE0ECF0E0808185FFFDCF8A
:1034C0008AE08093C60062C0F701EB55FE4F208171
:1034D00031812A30310508F048C0B9016F5F7F4F54
:1034E000F701EB55FE4F718360836115710549F15A
:1034F0001FE10BE1129FA001139F500D11244159B0
:103500005F4F4E0D5F1D169FC001179F900D112438
:1035100081599F4F8E0D9F1DFA013496DC01149640
:10352000602F01900D926A95E1F7FA014281538173
:10353000DC0113965C934E931297B9012150310927
:10354000C8F6C70181599F4F2BE1F6013496DC0183
:10355000149601900D922A95E1F7F60122813381AC
:10356000DC0113963C932E931297C701805B9F4F0B
:103570002BE1FE013596DC01149601900D922A95FF
:10358000E1F72B813C81FC01338322838AE294E0C2
:103590009A8389838885882321F0CE0105960E942D
:1035A000035F6F960FB6F894DEBF0FBECDBFDF91FD
:1035B000CF911F910F91FF90EF90DF90CF900895E2
:1035C000EF92FF920F931F93CF93DF93FC01EB5584
:1035D000FE4F208131812115310509F453C0EF01DF
:1035E00021503109318320839C01205B3F4FAC0186
:1035F00041595F4F6BE1FA013496D901149601905D
:103600000D926A95E1F7FA0142815381F9015383E2
:10361000428328813981232BA9F120E030E00F2E4D
:10362000FFE1FF2EF02D0F2EFBE1EF2EF02D8E018E
:10363000A9014F5F5F4FF49EB001F59E700D1124FC
:1036400061597F4F680F791FF29EE001F39ED00D04
:103650001124C159DF4FC80FD91FFB013496DE0179
:1036600014962E2D01900D922A95E1F7FB012281EF
:1036700033813B832A839A01F801408151812417C9
:103680003507B0F2DF91CF911F910F91FF90EF902E
:103690000895CF93DF93EC010E9409720E94867215
:1036A000CE0182539E4F0E94035F1A8281E992E00D
:1036B00094D78091290E882321F11092290EC09170
:1036C0006305D0E0FE01EE0FFF1FE75EFE4E608156
:1036D0007181882777FD8095982F0E94C2B620912E
:1036E00042023091430240914402509145020E94AF
:1036F00023B8181634F4CC0FDD1FC75EDE4E1982D6
:103700001882DF91CF910895AF92BF92CF92DF924E
:10371000EF92FF920F931F93CF93DF93CDB7DEB756
:10372000E0970FB6F894DEBF0FBECDBF80E1EDE7A6
:10373000F2E0DE01919601900D928A95E1F780E129
:10374000EDE8F2E0DE01519601900D928A95E1F7E5
:1037500080E1EDE9F2E0DE01119601900D928A958B
:10376000E1F76E0181E2C80ED11C0F2EF6E7EF2EB5
:10377000FEE0FF2EF02D8E010F5E1F4F66E87EE00B
:10378000AE014F5F5F4F0F2EF6E6AF2EFEE0BF2E6D
:10379000F02D20E030E0F60181919191A191B1915D
:1037A0006F01F70181939193A193B1937F01F80188
:1037B00081919191A191B1918F01FB01819391939D
:1037C000A193B193BF01FA0181919191A191B1911E
:1037D000AF01F50181939193A193B1935F012F5FA5
:1037E0003F4F24303105B9F60E94AA5780E090E897
:1037F000ABE3B5E480935E0E90935F0EA093600EF2
:10380000B093610E80935A0E90935B0EA0935C0E62
:10381000B0935D0E1092620E1092630E1092640EC1
:103820001092650E80E29EE4A0E0B0E08093960ED8
:103830009093970EA093980EB093990E10924A0E03
:1038400010924B0E10924C0E10924D0E80E090E0B4
:10385000A0EAB1E48093560E9093570EA093580EB1
:10386000B093590E8DEC9CECACECBEE38093520E01
:103870009093530EA093540EB093550E80E090E0B9
:10388000A0EAB0E480934E0E90934F0EA093500E9A
:10389000B093510E109278051092790510927A0526
:1038A00010927B05109274051092750510927605A2
:1038B00010927705109270051092710510927205A2
:1038C0001092730584EB90E0909323128093221260
:1038D00086E490E090932112809320128FEF90E085
:1038E00090931F1280931E1220EF30E030931D1230
:1038F00020931C1224E630E030931B1220931A12FE
:1039000090931912809318128AE999E9A1EBB1E416
:1039100080935B0290935C02A0935D02B0935E0281
:1039200061E77DE38AE89FE30E948A7D6093570206
:10393000709358028093590290935A0260E070E0AD
:1039400084EE92E40E94967D609353027093540239
:1039500080935502909356020E941C7380E090E081
:10396000A0E8BFE380934F0290935002A0935102CE
:10397000B0935202EDE9F2E03491332381F0AF01CC
:10398000A0ECB0E086EC90E02C9125FFFDCFFC018F
:1039900030834F5F5F4FFA0134913111F5CFE3EA85
:1039A000F2E03491332381F0AF01A0ECB0E086EC7B
:1039B00090E02C9125FFFDCFFC0130834F5F5F4FDE
:1039C000FA0134913111F5CFE0ECF0E0808185FF10
:1039D000FDCF8AE08093C600E0960FB6F894DEBF74
:1039E0000FBECDBFDF91CF911F910F91FF90EF9050
:1039F000DF90CF90BF90AF9008952091B00430E059
:103A00008091B104281B3109822F932F0895809152
:103A1000B1049091B004891750F4E82FF0E0EE540F
:103A2000FB4F208130E08F5F8093B10402C02FEF05
:103A30003FEF822F932F0895E091B1048091B0045D
:103A4000E81730F4F0E0EE54FB4F208130E002C084
:103A50002FEF3FEF822F932F08950895CF92DF929B
:103A6000EF92FF920F931F93CF93DF938C01862FDA
:103A70006A0120918C042223A9F041155105B1F06F
:103A8000C62FD72F7A01EC0EFD1E6991D801ED915A
:103A9000FC910190F081E02DC8011995CE15DF054C
:103AA000A1F704C0642F972F0E94587E8C2D9D2D66
:103AB000DF91CF911F910F91FF90EF90DF90CF900A
:103AC0000895CF93DF931F92CDB7DEB7698320911E
:103AD0008C042223E1F020918D04203240F021E07B
:103AE00030E0FC013383228320E030E017C0809176
:103AF0008E04E82FF0E0E157FB4F998190838F5FB0
:103B000080938E0480938D0421E030E007C061E053
:103B1000CE0101960E94587E21E030E0822F932F43
:103B20000F90DF91CF910895FC011382128248EE2D
:103B300053E060E070E0448355836683778384E2DA
:103B400093E09183808308951092B1041092B004A1
:103B500010928E0410928D040C94A27D862F413217
:103B600008F040E262EB74E00E94C07D1092B10464
:103B70008093B004089521E0F1CF81E080938C041C
:103B80006093AF0410928E0410928D0408950F93E9
:103B9000062F21E040918D046FE874E08091AF041E
:103BA0000E94057E10928E0410928D0410928C0457
:103BB0000F91089561E0EBCF80E894E0B5CF1F92BC
:103BC0000F920FB60F9211240BB60F922F933F93C3
:103BD0004F935F936F938F939F93EF93FF936091B6
:103BE000C6002091530530915405C90101968F7785
:103BF000992740915505509156058417950741F036
:103C0000F901ED52FB4F6083909354058093530567
:103C1000FF91EF919F918F916F915F914F913F91A4
:103C20002F910F900BBE0F900FBE0F901F90189505
:103C30009A01AB01211581EE380741055105E9F0E4
:103C400082E08093C00060E079E08DE390E00E9424
:103C5000D1C0DA01C9010197A109B109AC01BD01C7
:103C600022F44F5F5F4F6F4F7F4FDB01CA01B59565
:103C7000A795979587959C0104C01092C00020E1FC
:103C800030E03093C5002093C400E1ECF0E0808187
:103C90008061808380818860808380818068808368
:103CA00008952091550530915605809153059091C6
:103CB00054058217930779F0F901ED52FB4F80818B
:103CC0002F5F3F4F2F7733273093560520935505AD
:103CD000282F30E002C02FEF3FEF822F932F08955F
:103CE0008091550590915605909354058093530506
:103CF00008954F925F926F927F928F929F92AF92B0
:103D0000BF92CF92DF92EF92FF920F931F93CF93C8
:103D1000DF93CDB7DEB7A0970FB6F894DEBF0FBE26
:103D2000CDBF8C01CB01BA016115710581059105EB
:103D300031F440E050E060E3C801B3D04AC0EE2463
:103D4000E394F12CEC0EFD1E812C912C5401422E9B
:103D5000512C612C712CA30192010E94AFC0F7017C
:103D600061937F01FFEF8F1A9F0AAF0ABF0A622F8C
:103D7000732F842F952F611571058105910559F7D2
:103D800081149104A104B10421F1CC24CA94DC2C47
:103D90007601C80CD91CEA1CFB1C02C06C017D0119
:103DA000E1E0F0E0EC0FFD1FEC0DFD1D60816A30DD
:103DB00010F4605D01C0695C40E050E0C80171D062
:103DC000D701C6010197A109B109CD28CE28CF2876
:103DD00029F7A0960FB6F894DEBF0FBECDBFDF91D6
:103DE000CF911F910F91FF90EF90DF90CF90BF90F8
:103DF000AF909F908F907F906F905F904F900895BD
:103E00002115310541F4E0ECF0E0808185FFFDCF24
:103E10004093C60008956DCF9A01AB0160E070E059
:103E2000EFCF9A01462F50E060E070E0E9CFCF92EB
:103E3000DF92EF92FF92CF93DF93EC016A017B0157
:103E40002115310541F4E0ECF0E0808185FFFDCFE4
:103E5000C092C60018C02A303105A1F4772364F45B
:103E600040E050E06DE21DD0F094E094D094C09416
:103E7000C11CD11CE11CF11C2AE0B701A601CE0136
:103E800038DF01C036DFDF91CF91FF90EF90DF90F8
:103E9000CF9008959A01AB01662757FD6095762F64
:103EA000C6CF9A01462F50E060E070E0C0CFCF93BC
:103EB000DF93EC0140E050E06DE0F3DF40E050E0E4
:103EC0006AE0CE01EEDFDF91CF910895CF93DF93CB
:103ED000EC01A2DFCE01EBDFDF91CF9108959F923D
:103EE000AF92BF92CF92DF92EF92FF920F931F9308
:103EF000CF93DF93EC016A017B01122F20E030E0C9
:103F0000A901C701B6010E9420B688234CF440E005
:103F100050E06DE2CE01C5DFF7FAF094F7F8F094C7
:103F2000112309F46CC000E060E070E080E09FE3E2
:103F300020E030E040E251E40E9427B60F5F011319
:103F4000F7CF32C0208125FFFDCF8EE28093C600DF
:103F500020E030E040E251E4692D7A2D8B2D9C2D3C
:103F60000E94F5B8B62EC72ED82E092F902F0E948A
:103F70008FB67B014AE050E0CE018CDFB701882785
:103F800077FD8095982F0E94C2B69B01AC016B2DE6
:103F90007C2D8D2D902F0E9446B5962EA72EB82EE3
:103FA000C92E1150A9F63BC0262F372F482F592F65
:103FB000C701B6010E9447B5962EA72EB82EC92E6E
:103FC0000E9494B6D62EE72EF82E092F0E94C0B676
:103FD0009B01AC01692D7A2D8B2D9C2D0E9446B53D
:103FE000962EA72EB82EC92E2AE030E04D2D5E2D3C
:103FF0006F2D702FCE0104DFE0ECF0E0A3CF20E0C6
:1040000030E040E05FE3C701B6010E9447B50E947F
:1040100094B6AB01BC012AE030E0CE01F1DEDF91C5
:10402000CF911F910F91FF90EF90DF90CF90BF90B5
:10403000AF909F90089553CF08952F923F924F9243
:104040005F926F927F928F929F92AF92BF92CF9228
:10405000DF92EF92FF920F931F93CF93DF9300D0E5
:1040600000D0CDB7DEB78330910508F06DC1FC01FB
:10407000EC5DF84F14919C01220F331F220F331F68
:104080003E832D8324583A4F3C832B83F9011082C1
:1040900011821282138228E835E044E855E060E896
:1040A00075E08CE795E00E94E456ED81FE81E95DC4
:1040B000F84F4590559065907490612F772767FD74
:1040C0007095872F972F0E94C2B64B015C012D81FE
:1040D0003E81235D364F3A83298320E030E040EC77
:1040E0005FE3642D752D862D972D0E94F5B8A501EF
:1040F00094010E94F5B8E981FA816083718382831B
:1041000093830F2EF1E22F2EF2E03F2EF02D2D8122
:104110003E81220E331EF101608171818281938183
:104120006093310270933202809333029093340291
:1041300020E030E040E752E40E9427B60F2EF3E67D
:10414000CF2EF5E0DF2EF02D7B018C0129E339E045
:1041500045E359E061E379E08DE299E00E940C4C7F
:104160000E940972EB81FC811082118212821382FB
:1041700028E835E044E855E060E875E08CE795E034
:104180000E94E456ED81FE81ED5CF84F459055901C
:1041900065907490A30192015058C501B4010E942A
:1041A000F5B8E981FA81608371838283938320E08B
:1041B00030E040E752E46091310270913202809128
:1041C0003302909134020E9427B67B018C0129E3CF
:1041D00039E045E359E061E379E08DE299E00E943E
:1041E0000C4C0E940972242D352D462D572D642D1F
:1041F000752D862D972D0E9447B59B01AC01C501F9
:10420000B4010E94F5B8E981FA81608371838283E9
:10421000938320E030E040E05FE3F1016081718151
:10422000828193810E94F5B8E62FF72F462F572FF2
:10423000682F792F409331025093320260933302FA
:104240007093340220E030E040E752E46E2F7F2F7D
:104250000E9427B67B018C0129E339E045E359E050
:1042600061E379E08DE299E00E940C4C0E940972B2
:10427000ED81FE81E15CF84F85919591A591B49116
:10428000ED81FE81E059FA4F408051806280738059
:10429000A3019201682F792F8A2F9B2F0E9447B587
:1042A000E62EF72E282E392E862F9F2DA22DB32DE8
:1042B000EB81FC8180839183A283B383ED81FE81B6
:1042C000E55BF84F85919591A591B4910D811E8183
:1042D0000C591A4F282F392F4A2F5B2FC301B201D7
:1042E0000E9447B5F8016083718382839383ED81D7
:1042F000FE81E95AF84F85919591A591B4910D8170
:104300001E810F5E1D4F282F392F4A2F5B2FC301AF
:10431000B2010E9447B5F801608371838283938361
:104320008E2D9F2DA22DB32DE981FA81808391835B
:10433000A283B383109231021092320210923302A0
:10434000109234020E94076A26960FB6F894DEBFD8
:104350000FBECDBFDF91CF911F910F91FF90EF90D6
:10436000DF90CF90BF90AF909F908F907F906F9095
:104370005F904F903F902F900895EF92FF920F9390
:104380001F93CF93DF938130910549F46F3F7F4FA7
:1043900009F054C082E995E00E94C50E4FC0892BF8
:1043A00009F04CC06F3F7F4F09F048C08AE294E0AB
:1043B00090935D0780935C0780916307882321F0C9
:1043C00080E697E00E94035FCFE1D7E087E397E0C4
:1043D0000F2EFAE2EF2EF4E0FF2EF02D06C06F97BD
:1043E000C801E6E001301E0769F08C010F51110988
:1043F000F801F182E0822881222389F34B970E9401
:10440000035FEDCF8AE294E09093E3058093E205A9
:104410008091E905882321F086EE95E00E94035FF4
:104420008AE294E09093C2058093C1058091C8050B
:10443000882321F085EC95E00E94035FDF91CF9106
:104440001F910F91FF90EF900895CF93DF93FC01A0
:104450009491992361F0A0ECB0E0C6ECD0E08C918F
:1044600085FFFDCF9883319694919111F8CF22E08A
:1044700030E082ED94E0DFDDDF91CF910895CF93BE
:10448000DF931F921F92CDB7DEB780915C1290919F
:104490005D12009731F4CE01815692419A8389834F
:1044A00008C09E012F5F3F4FA901481B590B5A833B
:1044B000498389819A810F900F90DF91CF91089560
:1044C000CF93DF9320918D0730918E0724303105F3
:1044D0000CF080C040918F075091900760E6649F78
:1044E0009001659F300D1124BC01C9018F56984F72
:1044F0000E942CC4E5ECF2E09491992361F0A0ECC9
:10450000B0E0C6ECD0E08C9185FFFDCF988331966A
:1045100094919111F8CFEBECF2E09491992361F032
:10452000A0ECB0E0C6ECD0E08C9185FFFDCF988385
:10453000319694919111F8CF80918F0790919007C7
:1045400020E6289FD001299FB00D1124AF56B84F07
:104550009C91992361F01196E0ECF0E0C6ECD0E07C
:10456000808185FFFDCF98839D919111F9CFE6ED74
:10457000F2E09491992361F0A0ECB0E0C6ECD0E0B9
:104580008C9185FFFDCF9883319694919111F8CF4E
:10459000E0ECF0E0808185FFFDCF8AE08093C600EB
:1045A00080918F079091900701968370907899235E
:1045B00024F401978C6F9F6F0196909390078093DE
:1045C0008F0780918D0790918E07019690938E07AB
:1045D00080938D07DF91CF910895CF93DF93209142
:1045E0008D0730918E07243031050CF080C040914A
:1045F0008F075091900760E6649F9001659F300D92
:104600001124BC01C9018F56984F0E94AFC3E5EC3D
:10461000F2E09491992361F0A0ECB0E0C6ECD0E018
:104620008C9185FFFDCF9883319694919111F8CFAD
:10463000E8EDF2E09491992361F0A0ECB0E0C6ECD3
:10464000D0E08C9185FFFDCF9883319694919111A4
:10465000F8CF80918F079091900720E6289FD00196
:10466000299FB00D1124AF56B84F9C91992361F04A
:104670001196E0ECF0E0C6ECD0E0808185FFFDCF44
:1046800098839D919111F9CFE3EEF2E094919923F3
:1046900061F0A0ECB0E0C6ECD0E08C9185FFFDCFDE
:1046A0009883319694919111F8CFE0ECF0E08081FD
:1046B00085FFFDCF8AE08093C60080918F0790919F
:1046C0009007019683709078992324F401978C6F5A
:1046D0009F6F01969093900780938F0780918D072D
:1046E00090918E07019690938E0780938D07DF91AE
:1046F000CF910895809A889A269A2E980895809A44
:1047000088980895CF93DF93F5DF40E950ED63E09B
:1047100070E082ED94E08CDAE5EEF2E0949199237A
:1047200061F0A0ECB0E0C6ECD0E08C9185FFFDCF4D
:104730009883319694919111F8CFE0ECF0E080816C
:1047400085FFFDCF8AE08093C60085EC92E0FC01F6
:104750003491332361F0A0ECB0E0C6ECD0E02C91B2
:1047600025FFFDCF3883319634913111F8CF24B72E
:1047700020FF19C0EBEEF2E04491442361F0A0EC7D
:10478000B0E0C6ECD0E03C9135FFFDCF48833196D8
:1047900044914111F8CFE0ECF0E0308135FFFDCFDE
:1047A0003AE03093C60021FF19C0E3EFF2E04491F4
:1047B000442361F0A0ECB0E0C6ECD0E03C9135FFC2
:1047C000FDCF4883319644914111F8CFE0ECF0E001
:1047D000308135FFFDCF3AE03093C60022FF19C08B
:1047E000E3E0F3E04491442361F0A0ECB0E0C6ECD8
:1047F000D0E03C9135FFFDCF488331964491411183
:10480000F8CFE0ECF0E0308135FFFDCF3AE03093B7
:10481000C60023FF19C0E4E1F3E04491442361F0B2
:10482000A0ECB0E0C6ECD0E03C9135FFFDCF488372
:10483000319644914111F8CFE0ECF0E0308135FF42
:10484000FDCF3AE03093C60025FF19C0E4E2F3E063
:104850003491332361F0A0ECB0E0C6ECD0E02C91B1
:1048600025FFFDCF3883319634913111F8CFE0EC3C
:10487000F0E0208125FFFDCF2AE02093C60014BE82
:10488000E4E3F3E03491332361F0A0ECB0E0C6EC54
:10489000D0E02C9125FFFDCF388331963491311132
:1048A000F8CFECE3F3E03491332361F0A0ECB0E017
:1048B000C6ECD0E02C9125FFFDCF388331963491A2
:1048C0003111F8CFE0ECF0E0208125FFFDCF2AE0A8
:1048D0002093C600FC013491332371F0E5ECF2E043
:1048E000A0ECB0E0C6ECD0E02C9125FFFDCF3883E2
:1048F000319634913111F8CFE2E4F3E0349133236F
:1049000061F0A0ECB0E0C6ECD0E02C9125FFFDCF2B
:104910003883319634913111F8CFE2E5F3E03491E8
:10492000332361F0A0ECB0E0C6ECD0E02C9125FF81
:10493000FDCF3883319634913111F8CFE7E6F3E0BB
:104940003491332361F0A0ECB0E0C6ECD0E02C91C0
:1049500025FFFDCF3883319634913111F8CFE3E74D
:10496000F3E03491332361F0A0ECB0E0C6ECD0E08A
:104970002C9125FFFDCF3883319634913111F8CF3A
:10498000E0ECF0E0208125FFFDCF2AE02093C60077
:10499000EAE8F3E03491332361F0A0ECB0E0C6EC38
:1049A000D0E02C9125FFFDCF388331963491311121
:1049B000F8CFE5E9F3E03491332361F0A0ECB0E007
:1049C000C6ECD0E02C9125FFFDCF38833196349191
:1049D0003111F8CFE0ECF0E0208125FFFDCF2AE097
:1049E0002093C600FC018491882371F0E5ECF2E08D
:1049F000A0ECB0E0C6ECD0E09C9195FFFDCF8883A1
:104A0000319684918111F8CFE1EAF3E094919923F2
:104A100061F0A0ECB0E0C6ECD0E08C9185FFFDCF5A
:104A20009883319694919111F8CF29DD4AE050E0B6
:104A3000BC0182ED94E02EDAE0EBF3E0949199234F
:104A400061F0A0ECB0E0C6ECD0E08C9185FFFDCF2A
:104A50009883319694919111F8CF4AE050E060ED3F
:104A600074E082ED94E016DAE0ECF0E0808185FFFE
:104A7000FDCF8AE08093C6001092110910921209AE
:104A800010921309109214090E94841B0E9433751E
:104A90000E946B4A0E9496710E9490958FE99FE058
:104AA0000197F1F700C00000DF91CF910895809148
:104AB0001B0990911C0960E070E001960C9420C1E4
:104AC00080911B0990911C094AE050E060E070E081
:104AD00001960C9476C2409115095091160990E602
:104AE000949F9001959F300D1124682F70E0C901AB
:104AF0008F56984F0E9421C490931C0980931B09E4
:104B000021E0892B09F420E0822F0895CF93DF93D1
:104B10000E9403BA609325097093260980932709A0
:104B200090932809E0911509F0911609EF5EF64F70
:104B30008081811119C0ECE6F7E09491992361F02E
:104B4000A0ECB0E0C6ECD0E08C9185FFFDCF98835F
:104B5000319694919111F8CFE0ECF0E0808185FFDF
:104B6000FDCF8AE08093C600DF91CF910895CF9367
:104B7000DF9382ED94E0B4D8E3E6F7E094919923D3
:104B800061F0A0ECB0E0C6ECD0E08C9185FFFDCFE9
:104B90009883319694919111F8CF409121095091C9
:104BA000220960912309709124094F5F5F4F6F4F75
:104BB0007F4F2AE030E082ED94E039D9E0ECF0E07C
:104BC000808185FFFDCF8AE08093C6009FDFDF9163
:104BD000CF9108952F923F924F925F926F927F9262
:104BE0008F929F92AF92BF92CF92DF92EF92FF92FD
:104BF0000F931F93CF93DF93CDB7DEB7A2970FB676
:104C0000F894DEBF0FBECDBF0F2EF3E5AF2EF5E05B
:104C1000BF2EF02D0F2EF5E54F2EF5E05F2EF02D77
:104C20000F2EF0E67F2EF02D0F2EF5E92F2EF4E05B
:104C30003F2EF02DF101F491F9A300EC10E00F2EBE
:104C4000F6ECCF2ED12CF02DE2E9F4E0F491FAA3AA
:104C500094C28D3079F08A3329F480911809882321
:104C600049F0F2C32091190930911A092F35310505
:104C70000CF465C28091190990911A09009719F4F2
:104C8000109218092FC4E0908F07F09090077E9C37
:104C9000F0017F9CF00D11248E0F9F1FFC01EF5639
:104CA000F84F108280911809811144C2109218099E
:104CB000F701EF5EF64F10827E9CC0017F9C900D45
:104CC00011240F2EF1E98F2EF7E09F2EF02D880E84
:104CD000991E6EE470E0C4010E9421C4009709F49B
:104CE00059C190931C0980931B097E9C90017F9C65
:104CF000300D112488199909820F931F4AE050E062
:104D000060E070E08E56984F0E9476C260931D0955
:104D100070931E0980931F09909320092091210907
:104D20003091220940912309509124092F5F3F4F70
:104D30004F4F5F4F621773078407950709F493C3BA
:104D400020918F0730919007729EC001739E900D45
:104D5000112460EE73E08F56984F0E94E6C3892BB2
:104D600009F081C37AC3E5EEF3E0A0ECB0E086EC95
:104D700090E0AF012C9125FFFDCFFC0130834F5F08
:104D80005F4FFA0134913111F5CFECEEF3E034913D
:104D9000332381F0A0ECB0E086EC90E0AF012C91E1
:104DA00025FFFDCFFC0130834F5F5F4FFA01349147
:104DB0003111F5CF409121095091220960912309C9
:104DC000709124092AE030E082ED94E030D8E0ECE4
:104DD000F0E0808185FFFDCF8AE08093C600C7DECA
:104DE00010921A09109219097DC37E9CF0017F9CD4
:104DF000F00D1124EF56F84F40814A3291F050E007
:104E0000612C7E9C90017F9C300D112464265F5F95
:104E1000F901E50FF11DEF56F84F40814A32B1F725
:104E200001C0612C90931C0980931B097E9C90010A
:104E30007F9C300D112488199909820F931F60E01F
:104E400070E08E56984F0E9420C10E948FB6262D8A
:104E500030E02617370709F48CC0E5EEF3E0349113
:104E6000332381F0A0ECB0E086EC90E0AF012C9110
:104E700025FFFDCFFC0130834F5F5F4FFA01349176
:104E80003111F5CFEFE1F4E03491332381F0A0EC60
:104E9000B0E086EC90E0AF012C9125FFFDCFFC0146
:104EA00030834F5F5F4FFA0134913111F5CF40915C
:104EB00021095091220960912309709124092AE067
:104EC00030E082ED94E00E94171FE0ECF0E080817A
:104ED00085FFFDCF8AE08093C60049DE10921A0953
:104EE00010921909FFC2E5EEF3E03491332381F00B
:104EF000A0ECB0E086EC90E0AF012C9125FFFDCF57
:104F0000FC0130834F5F5F4FFA0134913111F5CFCF
:104F1000EEE3F4E03491332381F0A0ECB0E086ECD2
:104F200090E0AF012C9125FFFDCFFC0130834F5F56
:104F30005F4FFA0134913111F5CF40912109509121
:104F4000220960912309709124092AE030E082ED62
:104F500094E00E94171FE0ECF0E0808185FFFDCF18
:104F60008AE08093C60003DE10921A091092190994
:104F7000B9C280911D0990911E09A0911F09B0919D
:104F800020098093210990932209A0932309B093CB
:104F900024094DC06AE270E0C4010E9421C4892B3B
:104FA00009F445C0E5EEF3E03491332381F0A0EC41
:104FB000B0E086EC90E0AF012C9125FFFDCFFC0125
:104FC00030834F5F5F4FFA0134913111F5CFE8E63E
:104FD000F4E03491332381F0A0ECB0E086EC90E073
:104FE000AF012C9125FFFDCFFC0130834F5F5F4F58
:104FF000FA0134913111F5CF4091210950912209E4
:1050000060912309709124092AE030E082ED94E058
:105010000E94171FE0ECF0E0808185FFFDCF8AE061
:105020008093C60010921A09109219095BC28090F1
:105030008F0790909007789CC001799C900D112467
:105040000F2EF1E9EF2EF7E0FF2EF02DE80EF91EFE
:1050500067E470E0C7010E9421C4009709F450C0C2
:1050600090931C0980931B09789C9001799C300DCA
:1050700011248E199F09820F931F60E070E08E56F5
:10508000984F0E9420C10E948FB664307105C0F510
:105090008091580581111BC080919205811130C00B
:1050A0009AA1992361F0E2E9F4E0D8018C9185FF9F
:1050B000FCCFD6019C93319694919111F6CFF801D3
:1050C000808185FFFCCFEAE0D601EC9319C099A15D
:1050D000992359F0F101D8018C9185FFFCCFD601BD
:1050E0009C93319694919111F6CFF801808185FFC0
:1050F000FCCFEAE0D601EC938BE095E00E94379478
:1051000080918F07909190070196837090789923F2
:1051100024F401978C6F9F6F019690939007809372
:105120008F0780918D0790918E07019690938E073F
:1051300080938D0710921A09109219091EC08B33A3
:1051400021F481E08093180918C0909118099111F9
:1051500014C040918F0750919007749EF001759E86
:10516000F00D1124E20FF31FEF56F84F80832F5FED
:105170003F4F30931A0920931909D5018D919C91C5
:10518000F20120813181821B930B8F7799271816AA
:1051900019060CF08CC180918D0790918E070497B1
:1051A0000CF47BC184C18091190990911A09892B53
:1051B00009F413C197C14D3081F04A3321F4209195
:1051C0001809222351F02091190930911A092F351D
:1051D00031051CF4019609F0E0C0D5014D915D91B7
:1051E0006D917C91F10180819181A281B3814817F9
:1051F00059076A077B0708F493C099A1992361F0C6
:10520000E5E1F5E0D8018C9185FFFCCFD4019C93BA
:10521000319694919111F6CFF801808185FFFCCFF2
:105220008AE0D4018C930E9403BA6093590570936D
:105230005A0580935B0590935C05C0905D05D09006
:105240005E05E0905F05F09060056C197D098E09A0
:105250009F0928EE33E040E050E00E94AFC06901B2
:105260007A010F2EFCE34F2E512C612C712CF02D66
:10527000CA01B901A30192010E94AFC0CA01B901DC
:10528000A30192010E94AFC07F936F93C701B60143
:1052900020E13EE040E050E00E94AFC03F932F93FA
:1052A00088E295E09F938F93B8A1BF93EF8DEF9322
:1052B0000E9450C49AA10FB6F894DEBF0FBECDBFB6
:1052C000992361F0E5ECF2E0D8018C9185FFFCCFE9
:1052D000D4019C93319694919111F6CF99819923A1
:1052E00059F0FE013296D8018C9185FFFCCFD40194
:1052F0009C9391919111F7CFF801808185FFFCCFAC
:105300008AE0D4018C93CE0101960E94289482E910
:1053100095E00E94491B61E082E995E00E940B182C
:105320002091190930911A092115310519F41092AB
:105330001809D8C080918F079091900740E6489F48
:10534000F001499FF00D11242E0F3F1FF901EF5678
:10535000F84F1082FC01EF5EF64F21E02083209190
:105360008D0730918E072F5F3F4F30938E0720932C
:105370008D07019683709078992324F401978C6FA0
:105380009F6F01969093900780938F071092180952
:1053900010921A091092190940C04B3321F481E090
:1053A000809318093AC080911809811136C0809104
:1053B0008F079091900750E6589FF001599FF00D8C
:1053C0001124E20FF31FEF56F84F40832F5F3F4F3A
:1053D00030931A092093190920C00F2EF3E8AF2E3D
:1053E000F7E0BF2EF02D0F2EFBE72F2EF7E03F2E1C
:1053F000F02DE5E1F5E0F491F9A300EC10E00F2EBB
:10540000F6EC8F2E912CF02D9E012F5F3F4F38A38D
:105410002F8FE5ECF2E0F491FAA3D5014D915D9167
:105420006D917C91F10180819181A281B3814817B6
:1054300059076A077B0708F055C080918D07909146
:105440008E070497CCF14EC08091190990911A09EA
:105450008F3591050CF00ECC90CEE5EEF3E0349153
:10546000311181CC92CCE0908F07F09090077E9C18
:10547000C0017F9C900D11240F2EF1E98F2EF7E0D3
:105480009F2EF02D880E991E6AE270E0C4010E94E2
:1054900021C4009709F0A9CC26CD82ED94E00E94AA
:1054A000511E809317098A3009F0D3CBE3CB80914A
:1054B0009405811178CE16C0E8E6F7E080819181ED
:1054C000A281B381F50180839183A283B38380E6B7
:1054D00097E00E942A5D482F809317098A3009F0CF
:1054E0006ACE7BCEA2960FB6F894DEBF0FBECDBFBC
:1054F000DF91CF911F910F91FF90EF90DF90CF90B0
:10550000BF90AF909F908F907F906F905F904F90E3
:105510003F902F9008954F925F926F927F929F924B
:10552000AF92BF92CF92DF92EF92FF920F931F93B1
:10553000CF93DF930F2EFAEEEF2EF3E0FF2EF02D38
:105540000CE715E0CDE2D9E00F2EFEE8CF2EF5E016
:10555000DF2EF02D0F2EFEEEAF2EF3E0BF2EF02D3E
:1055600099249394F70181917F01B5DA882311F191
:105570009EDA2B013C01F6018081811103C060910C
:105580003D0901C0692D70E080E090E00E94C2B644
:10559000F80120813181428153810E94F5B89B013D
:1055A000AC01C301B2010E9447B5688379838A8345
:1055B0009B8309C0F80180819181A281B381888396
:1055C0009983AA83BB830C5F1F4F2496FFEFCF1AEA
:1055D000DF0AEA14FB0431F686E47DDA8823D1F091
:1055E00066DA6B017C0160934709709348098093E8
:1055F000490990934A0920E030E0A9010E9423B8AC
:10560000181644F4C0923102D0923202E092330272
:10561000F0923402DF91CF911F910F91FF90EF90A4
:10562000DF90CF90BF90AF909F907F906F905F90F2
:105630004F90089570DF89E44EDA882351F037DA0D
:1056400060934B0970934C0980934D0990934E09D8
:1056500008C010924B0910924C0910924D091092FB
:105660004E098AE438DA882351F021DA60934F0931
:1056700070935009809351099093520908951092A4
:105680004F09109250091092510910925209089531
:10569000CF92DF92EF92FF92CF93DF93EC01C09015
:1056A0006405D0906505E0906605F0906705A70158
:1056B0009601688179818A819B810E9420B6882326
:1056C00024F4C882D982EA82FB82C0906805D09017
:1056D0006905E0906A05F0906B05A70196016C8161
:1056E0007D818E819F810E9420B6882324F4CC8204
:1056F000DD82EE82FF82C0906C05D0906D05E09057
:105700006E05F0906F05A7019601688579858A85F9
:105710009B850E9420B6882324F4C886D986EA8611
:10572000FB86C0901102D0901202E0901302F0901C
:105730001402A7019601688179818A819B810E9468
:1057400023B8181624F4C882D982EA82FB82C0905A
:105750001502D0901602E0901702F0901802A701EF
:1057600096016C817D818E819F810E9423B81816DD
:1057700024F4CC82DD82EE82FF82C0901902D090A8
:105780001A02E0901B02F0901C02A70196016885A6
:1057900079858A859B850E9423B8181624F4C886CB
:1057A000D986EA86FB86DF91CF91FF90EF90DF905C
:1057B000CF900895CF92DF92EF92FF920F931F93B5
:1057C0008DE299E065DF0E9403BA6093250970932A
:1057D0002609809327099093280920912D0930915B
:1057E0002E0940912F095091300960917C057091EC
:1057F0007D0580917E0590917F050E9420B68111E4
:1058000035C02091310930913209409133095091CE
:105810003409609180057091810580918205909195
:1058200083050E9420B6811121C020E030E040E7CE
:1058300052E4609131027091320280913302909172
:1058400034020E9427B60F2EF3E6CF2EF5E0DF2EAE
:10585000F02D7B018C0129E339E045E359E061E358
:1058600079E08DE299E00E940C4C32C060911F02F9
:1058700070912002882777FD8095982F0E94C2B6EC
:105880002091310230913202409133025091340222
:105890000E94F5B820E030E040E752E40E9427B6CD
:1058A00020E030E048EC52E40E9427B60F2EF3E6E9
:1058B000CF2EF5E0DF2EF02D7B018C0129E339E0BE
:1058C00045E359E061E379E08DE299E00E940C4CF8
:1058D00080912D0990912E09A0912F09B091300946
:1058E00080937C0590937D05A0937E05B0937F0502
:1058F0008091310990913209A0913309B091340916
:105900008093800590938105A0938205B0938305D1
:105910008091350990913609A0913709B0913809E5
:105920008093840590938505A0938605B0938705A1
:105930008091390990913A09A0913B09B0913C09B5
:105940008093880590938905A0938A05B0938B0571
:105950001F910F91FF90EF90DF90CF900895AF923D
:10596000BF92CF92DF92EF92FF920F931F93CF934C
:10597000DF93D82F20914F09309150094091510960
:105980005091520960914B0970914C0980914D09D9
:1059900090914E090E9430B8C62F172F082FF92E6C
:1059A00060911F0270912002882777FD8095982FC3
:1059B0000E94C2B6209131023091320240913302EE
:1059C000509134020E94F5B820E030E040E752E404
:1059D0000E9427B620E030E048EC52E40E9427B64F
:1059E000209163052F93DF93FF920F931F93CF9323
:1059F0005B016C016894EE24E1F801E020E04BE4E7
:105A000059E06DE279E08CE795E00E947B4280915D
:105A10002D0990912E09A0912F09B0913009809302
:105A20007C0590937D05A0937E05B0937F058091C2
:105A3000310990913209A0913309B09134098093D2
:105A4000800590938105A0938205B0938305809192
:105A5000350990913609A0913709B09138098093A2
:105A6000840590938505A0938605B0938705809162
:105A7000390990913A09A0913B09B0913C09809372
:105A8000880590938905A0938A05B0938B050E94A1
:105A900003BA609325097093260980932709909390
:105AA00028090F900F900F900F900F900F90DF919B
:105AB000CF911F910F91FF90EF90DF90CF90BF900B
:105AC000AF900895F8940E94B575159A179A429A66
:105AD000A09A60E08CE00E94B4BBE5EEF3E0349164
